:100000000C9403020C944A020C944A020C944A0287
:100010000C944A020C944A020C944A020C944A0230
:100020000C944A020C944A020C943C240C94102523
:100030000C94881E0C944A020C944A020C944A02B6
:100040000C944A020C944A020C944A020C944A0200
:100050000C944A020C94DF1E0C944A020C944A023F
:100060000C944A020C944A020C944A020C944A02E0
:100070000C944A020C944A020C944A020C944A02D0
:100080000C944A020C944A020C944A020C944A02C0
:100090000C944A020C944A020C944A020C944A02B0
:1000A0000C944A020C944A020C944A0268747470CC
:1000B000733A2F2F716D6B2E666D2F0A00514D4BC9
:1000C00020697320746865206265737420746869A0
:1000D0006E67206576657221002B00520050004F3C
:1000E000002800510000000000000000002A2B281A
:1000F0000000000000000000000000000000000000
:1001000029000000002C1E3420212224342627251B
:100110002E362D3738271E1F202122232425263353
:1001200033362E37381F0405060708090A0B0C0D55
:100130000E0F101112131415161718191A1B1C1D67
:100140002F3130232D350405060708090A0B0C0D45
:100150000E0F101112131415161718191A1B1C1D47
:100160002F3130354C00000000000000000000007E
:10017000000000000000000000000000000000007F
:100180000000000000000000007E0F00D4FFFFFF11
:10019000C700000078000101010101010101010215
:1001A0000202020202020202030303030303030327
:1001B00004040404040404050505050506060606F2
:1001C00006070707070708080808090909090A0AAE
:1001D0000A0B0B0B0C0C0C0D0D0D0E0E0E0F0F0F52
:1001E00010101111111212131314141515161617DD
:1001F00017181819191A1A1B1B1C1D1D1E1E1F204B
:1002000020212222232424252626272829292A2B97
:100210002C2D2D2E2F3031323233343536373839BC
:100220003A3B3C3D3E3F40414243444546474849B6
:100230004A4C4D4E4F50515354555658595A5B5D88
:100240005E5F616264656668696B6C6D6F70727326
:100250007577787A7B7D7E8082838587888A8C8E8D
:100260008F91939596989A9C9EA0A2A3A5A7A9ABBF
:10027000ADAFB1B3B5B7BABCBEC0C2C4C6C9CBCDB1
:10028000CFD1D4D6D8DBDDDFE2E4E7E9EBEEF0F363
:10029000F5F8FAFDFF0C03320033007000610064D2
:1002A0000000001203610064006700610069006ED5
:1002B000006100690000000403090409025B0003F7
:1002C0000100A0FA09040000010301010009211145
:1002D0000100012240000705810308000A0904010A
:1002E0000002030000000921110100012222000781
:1002F0000582032000010705030320000109040211
:10030000000103000000092111010001227B000708
:1003100005840320000A1201100100000008EDFE10
:1003200000000100010200010660FF0961A101094E
:1003300062150026FF0095207508810209631500EB
:1003400026FF00952075089102C005010902A10150
:1003500085020901A10005091901290815002501D7
:100360009508750181020501093009311581257F44
:1003700095027508810609381581257F9501750854
:100380008106050C0A38021581257F9501750881C3
:1003900006C0C005010980A101850319012AB70023
:1003A000150126B700950175108100C0050C0901E3
:1003B000A101850419012AA002150126A0029501B8
:1003C00075108100C005010906A101050719E02982
:1003D000E7150025019508750181029501750881D1
:1003E000010507190029FF150026FF00950675086D
:1003F00081000508190129059505750191029501EE
:1004000075039101C00011241FBECFEFDAE0DEBFFB
:10041000CDBF04B603FE27C08091490290914A02E5
:10042000A0914B02B0914C028730904BA740B04B4B
:10043000D1F41092490210924A0210924B0210928B
:100440004C0214BE84B7877F84BF0FB6F894A8957A
:1004500080916000886180936000109260000FBE00
:10046000E0E0F8E3099511E0A0E0B1E0E8E1FFE4A5
:1004700002C005900D92A239B107D9F722E0A2E996
:10048000B1E001C01D92A934B207E1F70E94FA2041
:100490000C943F270C94000088322DE5920729F038
:1004A00089329D4559F081E00895FB0182818823BE
:1004B000D1F38DEB90E00E94B804F5CFFB0182816F
:1004C000882389F38CEA90E0F6CF81E008950C94BC
:1004D0004C0208950C9469021F93CF93DF9300D0D0
:1004E00000D00F92CDB7DEB749835A836B8330912A
:1004F000BC0189819A8131111DC06623B9F0222384
:10050000A9F00E94F81B182F682F89819A810E94F8
:10051000A31B69817A81812F0F900F900F900F900C
:100520000F90DF91CF911F910C94CB0F0E94D01BA5
:10053000182FEFCF0E94F81B69817A81EDCFFC0163
:10054000262F408151816281738184810C946C02D9
:10055000CF93DF93EC0160E00E949F02BE01DF9128
:10056000CF910C946A028F929F92AF92BF92CF92DA
:10057000DF92EF92FF920F931F936B017C0181E05A
:1005800090E0A0E0B0E04C015D0104C0880C991C33
:10059000AA1CBB1C4A95D2F7B501A4014C015D0110
:1005A00004C0880C991CAA1CBB1C2A95D2F74829A8
:1005B00059296A297B2904C0880F991FAA1FBB1FCC
:1005C0000A95D2F78A019B010C211D212E213F2182
:1005D000041715072607370789F48C299D29AE29AA
:1005E000BF29BC01CD011F910F91FF90EF90DF90CB
:1005F000CF90BF90AF909F908F90089580959095E9
:10060000A095B0958C219D21AE21BF21EACF0F93FB
:10061000382F262F6091FA017091FB018091FC0127
:100620009091FD01042F432F0E94B3020F910C946F
:10063000E11A0E942E1F0E94371D811102C00E94E4
:10064000DB1D0C949F060C94A20608950E9485174A
:100650000E9425032FEF84E39CE0215080409040CE
:10066000E1F700C000000C94031F0F931F93CF937A
:10067000DF93EC0161E00E949F028C01BE010E94A9
:10068000C00D882389F1BE01C8010E94670288233A
:1006900059F1BE01C8010E940211882329F1BE014F
:1006A000C8010E9454118823F9F0BE01C8010E94BC
:1006B00077128823C9F0BE01C8010E94E50C882387
:1006C00099F08A81882339F001158CE5180751F0DB
:1006D0000E3D1C4579F0CE01DF91CF911F910F9116
:1006E0000C9465020E94260380E0DF91CF911F9158
:1006F0000F9108950E94DB1DF7CFDF92EF92FF92DA
:100700000F931F93CF93DF93E82FF0E0EB51FF4F50
:10071000D490282F26952695269530E0F901EB57A1
:10072000FE4F0491877010E0082E02C015950795C2
:100730000A94E2F701701127F901EB58FE4FE4909B
:10074000F12C082E02C0F594E7940A94E2F791E0A8
:10075000E922FF24F901EB59FE4FC491D0E002C019
:10076000D595C7958A95E2F7C170DD27011511056A
:1007700019F081EE0E941214E114F10419F086EED2
:100780000E9412148D2D0E941115EF2819F086EE8B
:100790000E94A414012B19F081EE0E94A414CD2B09
:1007A00051F08CE2DF91CF911F910F91FF90EF906C
:1007B000DF900C941115DF91CF911F910F91FF9055
:1007C000EF90DF900895EF92FF920F931F93CF93D6
:1007D000DF93EC01162F0AE08881882309F454C0C6
:1007E000813009F04EC08981813099F47E0122E088
:1007F000E20EF11C8A810E941115E7012196812FDA
:10080000815050F3EFE9FFE03197F1F700C00000AD
:10081000F7CF823041F47E0182E0E80EF11C8A813C
:100820000E941214EACF833041F47E01E2E0EE0E22
:10083000F11C8A810E94A414E0CF843011F021962B
:10084000DDCF2A81229690E080E0AE014F5F5F4FBE
:100850002053330B2A30310548F0019778F2EFE945
:10086000FFE03197F1F700C00000F7CF089FB0011B
:10087000099F700D1124C901860F971F2981EA0174
:10088000E4CF0E947D03BACFDF91CF911F910F91EA
:10089000FF90EF90089560E00C94E303EF92FF92D5
:1008A0000F931F93CF93DF938C01F62E8AE0E82EEF
:1008B000F8018491882309F454C0813009F04DC0B7
:1008C000E8012196FE018491813091F42196FE0188
:1008D00084910E9411158E010F5F1F4F8F2D815043
:1008E00038F3EFE9FFE03197F1F700C00000F7CFF0
:1008F000823039F4E8012296FE0184910E9412149C
:10090000EACF833039F4E8012296FE0184910E94F7
:10091000A414E1CF8430F9F6E8012296FE01249177
:1009200090E080E0FE0131962053330B2A303105F0
:1009300048F0019780F2EFE9FFE03197F1F700C04E
:100940000000F7CFE89EA001E99E500D1124C901D7
:10095000840F951F2491EF01E5CF0E947D03E801EC
:10096000BACFDF91CF911F910F91FF90EF90089533
:1009700060E00C944E0408950C94BB0481E008954B
:100980000C94BE04CF93C82F0E94BC048C2FCF912F
:100990000C94C004CF93DF930E94CB0F0E94C40538
:1009A000EC01811521E5920708F042C0811530E580
:1009B000930708F09DC0883E910530F5803E910573
:1009C00008F092C0883A910588F4853A910508F0BC
:1009D00084C08130910509F487C0009709F484C070
:1009E000049708F081C0D0E0C0E07EC08F3B910545
:1009F000D0F7C85AD0E0CC0FDD1FC65EDE4F09909D
:100A0000D881C02DD46470C08115904250F4C115B6
:100A100081E0D80708F068C0C03FD10520F3D06559
:100A200063C0C11590E4D907F0F2DF70D06A5CC0F2
:100A3000811525E5920700F5811534E5930708F047
:100A40008BC0811543E5940708F073C0C11582E59A
:100A5000D80708F469C0CE018370992721E030E0FF
:100A600002C0220F331F8A95E2F7C695C69580E231
:100A7000C89FE001112454C0C11599E5D907A8F415
:100A8000C11528E5D20708F06CC0C11536E5D307BB
:100A900008F0A9CF8C2F0E945B06C82FD0E0DC2F76
:100AA000CC27CC27DF71D0621FC0C1154AE5D4071F
:100AB00008F45CC0CE0190568115904208F093CFA7
:100AC0008D2F8F710E945B0690E0982F88278827D2
:100AD0009F719C012C2BE901E6CFC55AD0E0C85B81
:100AE000DE4FC881D0E0D064CE01DF91CF91089570
:100AF000E4E096958795EA95E1F783702C2F26958B
:100B00002695237040E2249F90011124382B8C2FCE
:100B10008370C1E0D0E002C0CC0FDD1F8A95E2F700
:100B2000C22BD32BDC68E0CFDC2FCC27C16FD06A7F
:100B3000DBCF8370992721E030E002C0220F331F02
:100B40008A95E2F7C695C69590E2C99FE001112407
:100B5000C22BD32BDA68C8CFD82FCC27C46FD06A6A
:100B6000C3CFDC2FCC27C06FD06ABECF8C2F8F7045
:100B70000E945B0634E0D695C7953A95E1F7CF70B1
:100B80009C2FEC01D069B0CF82389105B1F1B0F45F
:100B90008133910509F475C048F48932910509F44F
:100BA00069C08A32910509F473C0089585339105AF
:100BB00009F459C08933910501F10895833E9105E7
:100BC000A9F138F4803E9105F9F0823E910549F192
:100BD0000895863E9105A9F1873E9105C9F1843EAD
:100BE000910519F520913B0221FF1FC080913A0227
:100BF00084FD14C087EE90E0089520913A0223709E
:100C0000A1F080EE90E0089520913A0220FD47C0C7
:100C100030913B0230FF09C024FF44C090E080E0E7
:100C200004C020913A0222FDF7CF089520913A02A4
:100C300022FD3BC030913B0230FDE3CF24FFF5CFD6
:100C4000EDCF20913A0223FFF0CF24FDE7CFD2CFA2
:100C500020913A0223FD2CC030913B0231FFEECFB0
:100C600084EE90E0089520913A0225FFDECF89E2DC
:100C700090E0089520913A0225FFD7CF85E390E0D8
:100C8000089520913A0226FFD0CF8AE290E008959D
:100C900020913A0226FFC9CF81E390E0089589E3CD
:100CA00090E0089583EE90E0089582EE90E008953C
:100CB00086EE90E0089590913A0292FF06C0282FA8
:100CC00028712830F9F4877F846093FF06C0282FAD
:100CD00028712831F1F4877E846120913B0220FF46
:100CE00006C0382F38713830D9F4877F816021FFF2
:100CF00006C0282F28712831D1F4877E816194FDA8
:100D0000877E0895282F24712430F9F68B7F886020
:100D1000DCCF282F2471243101F78B7E8861DDCF51
:100D2000382F3171313019F78E7F8860E0CF282F4E
:100D30002171213121F78E7E8861E1CF08950C94D5
:100D40009E0608950C94A106E82FF0E0E35EFD4FA7
:100D500080810895089580EA8A95F1F7089500C08A
:100D600008950C94AB06F894E82FE295EF70F0E04C
:100D700031A1282F2F7081E090E001C0880F2A95C3
:100D8000EAF7982F9095932391A392A1892B82A3A0
:100D90007894089584EF0E94B30685EF0E94B3060D
:100DA00080EF0E94B30681EF0E94B30686EF0E9497
:100DB000B306ABE1B2E01C92EDE1F2E010821196D5
:100DC0001C92118282E00E9464070C941903BF9266
:100DD000CF92DF92EF92FF920F931F93CF93DF9307
:100DE0000EE411E0CBE1D2E0C12CD12CEE24E3944F
:100DF000F12CF80181918F01F894E82FE295EF70C2
:100E0000F0E021A18F70A70102C0440F551F8A9501
:100E1000E2F7CA01922F982B91A392A18095892382
:100E200082A378940E94AF06EBE4F1E030E020E08A
:100E3000B12C4191A42FA295AF70B0E090968C9107
:100E400090E04F7002C0959587954A95E2F780FD36
:100E500037C08E2D022E01C0880F0A94EAF7B82AF7
:100E60002F5F3F4F2330310521F7F8013197808103
:100E70000E94B306C11002C00E94B1068881B81654
:100E800009F1B88281E0D82A219651E0C51215C037
:100E90002D2D42E06DE172E08BE192E00E9465074A
:100EA0000E9423038D2DDF91CF911F910F91FF9011
:100EB000EF90DF90CF90BF900895CC24C39499CF4A
:100EC00080E0CDCF80E0DFCF0895FF920F931F9396
:100ED000CF93DF93F82E092F162FD72FC42F22235D
:100EE00049F081E0809396010E94B81E909395018D
:100EF00080939401809196018823A1F080919401C0
:100F0000909195010E94D01E069760F0EF2DF02F72
:100F1000A12FBD2FCE0FDF2FD11DEC17FD0741F400
:100F200010929601DF91CF911F910F91FF9008953C
:100F300081918D93F2CF80919D0180FF12C06091CD
:100F4000050185E0689FB001112475956795759539
:100F5000679560387105A8F561157105A1F1862FB7
:100F6000089581FF09C06091050185E0689FB00187
:100F7000112475956795EDCF6091050182FD0AC03A
:100F800080919C018823D1F090910401609105012A
:100F9000891728F085E0689FB0011124DACF869F79
:100FA000B001112485E0869F9001879F300D1124A8
:100FB000692F70E0C9010E94D626CBCF65E070E0B2
:100FC000CECF8FE7089581E0089580919D0180FF45
:100FD0000CC06091010170E07595679575956795F6
:100FE0006115710549F1862F089581FF06C0609152
:100FF000010170E075956795F3CF6091010182FD65
:101000000BC090919B019923A1F060910001809108
:101010000101961738F0682F70E06038710500F311
:101020008FE70895899FC001112470E00E94D626A1
:10103000F4CF61E070E0D7CF81E00895803F31F4D4
:101040000E949B0781958093A1010895813F19F427
:101050000E949B07F8CF823F31F40E949B07819545
:101060008093A0010895833F19F40E949B07F8CF55
:10107000893F29F40E94E5078093A20108958A3FE1
:1010800021F40E94E5078195F7CF8B3F31F40E9450
:10109000E50781958093A30108958C3F19F40E9480
:1010A000E507F8CF9CE0980F953070F4845F990BBA
:1010B00021E030E001C0220F8A95EAF780919F017C
:1010C000822B80939F0108958D3F31F480919D0183
:1010D000816080939D0108958E3F21F480919D0150
:1010E0008260F7CF8F3FB9F780919D018460F1CF87
:1010F0004091A001803F59F48091A10187FF0DC06C
:101100001092A10141110BC010929C0108C0813FB7
:1011100081F48091A10118169CF3442381F0809101
:10112000A2019091A301892B09F05AC010929B0152
:101130000895823F49F447FFF0CF1092A0018091BB
:10114000A1018111ECCFE0CF833F19F41416ACF369
:10115000E4CF9091A201893F29F41916F4F6109278
:10116000A201DBCF8A3F19F497FFD7CFF8CF909138
:10117000A3018B3F29F497FFD0CF1092A301CDCFCD
:101180008C3F19F41916CCF3C8CF9CE0980F95301A
:1011900090F4845F990B21E030E0B90102C0660F42
:1011A000771F8A95E2F7CB01809590919F01892363
:1011B00080939F01B2CF8D3F31F480919D018E7F4E
:1011C00080939D01AACF8E3F21F480919D018D7F58
:1011D000F7CF8F3F09F0A1CF80919D018B7FF0CF9A
:1011E00008950E94B81E9C019091A0018091A101D8
:1011F000982B21F030939A01209399019091A201AC
:101200008091A301982B21F03093980120939701AE
:101210008EE991E00C94BD12EF92FF920F931F9311
:10122000CF93DF9300D000D000D0CDB7DEB786E0FB
:10123000EEE9F1E0DE01119601900D928A95E1F759
:10124000E090A001F090A1010091A2011091A301F2
:101250001092A0011092A1011092A2011092A3017C
:101260008E2D8F2991F08091990190919A010E9481
:10127000D01EAC0190919C01992309F43FC080914C
:1012800006018417150608F447C0802F812B91F0C2
:1012900080919701909198010E94D01EAC0190918D
:1012A0009B01992309F477C08091020184171506E8
:1012B00008F47FC08091A0019091A101892B9091A9
:1012C000A201892B9091A301892B11F00E94F108B2
:1012D00086E0FE013196AEE9B1E001900D928A956B
:1012E000E1F726960FB6F894DEBF0FBECDBFDF91B3
:1012F000CF911F910F91FF90EF90089520910701DA
:101300008AE0289F900111242417350708F0BDCFEB
:101310009F5F90939C0102C09F3FD1F7EE2059F050
:101320000E949B079FEF1E140CF491E0899F802D73
:1013300011248093A001FF2059F00E949B079FEF8A
:101340001F140CF491E0899F802D11248093A1013A
:101350003091A001332309F498CF2091A1012223D9
:1013600009F493CF45EB3403C0011124992359F0BC
:101370009093A00145EB240390011124332339F00D
:101380003093A10182CF81E08093A001F3CF81E06F
:101390008093A1017ACF209103018AE0289F9001D8
:1013A00011242417350708F085CF9F5F90939B0188
:1013B00002C09F3FD1F7002359F00E94E5079FEF3D
:1013C00010160CF491E0899F802D11248093A201C6
:1013D000112359F00E94E5079FEF11160CF491E0DC
:1013E000899F802D11248093A3013091A201332382
:1013F00009F460CF2091A301222309F45BCF45EBD0
:101400003403C0011124992359F09093A20145EBB4
:10141000240390011124332339F03093A3014ACFE0
:1014200081E08093A201F3CF81E08093A30142CFBA
:1014300086E0EEE9F1E0DF011D928A95E9F710926E
:101440009C0110929B0110929D010895EF92FF92D2
:101450000F931F93CF93DF93EB01E82FD11110C0AF
:10146000442321F0F0E0EB56FE4FE4916E2F7E2FE7
:101470008E2FDF91CF911F910F91FF90EF900895E4
:101480000D2F10E0282F30E0442329F02B563E4F3B
:10149000F901249130E0F6E0CF9FC0011124EFEF75
:1014A000F0E0BF010E94C226AB018C2F90E0880FB4
:1014B000991FA5E5A49FB001A59F700D1124861B5F
:1014C000970B982F990F980FBF01601B710B629FAC
:1014D000D001639FB00D729FB00D11248B2F9D9F83
:1014E000B0011124672F7727EF01C61BD70BBE0170
:1014F000629FE001639FD00D729FD00D11247F0188
:10150000E91AF108E09EB001E19E700DF09E700DA9
:101510001124672F7727E61BF70BE29F8001E39FDB
:10152000100DF29F100D1124E12F722F4230510542
:1015300099F048F44115510569F04130510581F0A9
:10154000EB2F8D2F07C04430510569F080F04630F5
:101550005105B1F76E2F8DCFE22F7B2F812FFACF60
:10156000E22F7D2FF7CFEB2F822F712FF3CF7B2F21
:10157000822FED2FEFCF41E00C94260A0C94BB0A8A
:10158000CF93DF93762FE901682F842F0E94BE0A44
:10159000798368838A83DF91CF91089580911F02B8
:1015A000982F9E7F39F480911F0281708260809312
:1015B0001F0208958430B8F7089588E090E00C94F5
:1015C000FF26CF92DF92EF92FF926B017C010E9487
:1015D000CE0AB701A60188E090E0FF90EF90DF907F
:1015E000CF900C941D2760911F0270912002809172
:1015F0002102909122020C94E10AEFE1F2E083E0F3
:10160000808311828FEF8283838314826081718152
:10161000828193810C94E10A80911F0280FF02C0B5
:101620008695089580E0089590912302933018F4F0
:101630009F5F90932302882351F060911F02709165
:10164000200280912102909122020C94E10A0895D7
:1016500081E00C94140B90912302992319F091507E
:1016600090932302882351F060911F027091200211
:1016700080912102909122020C94E10A089581E068
:101680000C942B0B809123020895809323026623F0
:1016900051F060911F02709120028091210290917F
:1016A00022020C94E10A089560E00C94450B8091AD
:1016B00020020895809121020895809122020895C8
:1016C00070E00C943D0D6091090180911F0280FF34
:1016D0000AC08091080123E0829FC00111248C5D23
:1016E0009D4F0C94600B80910A0190910B0123E0B7
:1016F000829FF0011124EC5DFD4F891750F7118294
:10170000108212828F5F3396F8CFEFE1F2E0808192
:101710008E7F808360817181828193810E94E10A42
:101720002FEF80E792E0215080409040E1F700C029
:1017300000000C94630BEFE1F2E080818E7F8083E8
:101740002FEF80E792E0215080409040E1F700C009
:1017500000000C94630B90911F0290FF14C09091B5
:101760000A0120910B0133E0939FF0011124EC5DFD
:10177000FD4F921710F00C94630B818360834283BA
:101780009F5F3396F6CF0895EF92FF920F931F93CA
:10179000CF93DF9300D00F92CDB7DEB7F82E062F90
:1017A000142FE22E80911F0280FF28C0E82FE695BB
:1017B000F0E0E05BFE4F90819093A5018E7F823038
:1017C00059F49E012F5F3F4F8F2D0E94C00A4B811D
:1017D00069818A810E94AB0BF09220020093210262
:1017E00010932202EE2051F060911F0270912002AE
:1017F00080912102909122020E94E10A0F900F90A5
:101800000F90DF91CF911F910F91FF90EF9008956E
:10181000EFE1F2E09181282F4381628188E0890F16
:101820000C94C40B81E00C94080CEFE1F2E0918180
:10183000282F4381628188EF890F0C94C40B81E0CB
:101840000C94150CEFE1F2E0628121E1620F08F4E3
:101850006FEF282F438181810C94C40B81E00C949D
:10186000220CEFE1F2E0628121E1621B08F460E00A
:10187000282F438181810C94C40B81E00C94310C9E
:10188000EFE1F2E0438121E1420F08F44FEF282F0E
:10189000628181810C94C40B81E00C94400CEFE1D7
:1018A000F2E0438121E1421B08F440E0282F6281ED
:1018B00081810C94C40B81E00C944F0C20E00C94BB
:1018C000C40B80911F0280FF18C0817082608093DA
:1018D0001F02662351F060911F02709120028091D7
:1018E0002102909122020E94E10A4091220260911D
:1018F0002102809120020C945E0C0895682F81E0F3
:101900000C94610C81E00C947E0C682F90911F0266
:1019100096958FEF890F09F481E00C94610C81E0BA
:101920000C94850C61E00C94610CEFE1F2E0808195
:101930008160808386950C94920C80911F0280FDBB
:101940000C94850B0C94950C60E00C94610C8091C8
:10195000A40181112CC00E94371D811104C00E9476
:10196000DB1D0E94FD0A0E94DD0A60931F02709336
:10197000200280932102909322026E7F61F40E94E4
:10198000FD0A0E94DD0A60931F027093200280937B
:101990002102909322020E94CE0A80911F0280FFB2
:1019A00003C086950E94A40C81E08093A401089551
:1019B000EFE1F2E080818160808386950C94A40C35
:1019C000FA01811101C0FB0109940F931F93CF937A
:1019D0008C01FB01C281CC2309F44DC00E948D1CF7
:1019E0008272F801E25CFC45E431F10538F4EF5B0A
:1019F000F84D0C94EA260E949D0CC0E08C2FCF91EC
:101A00001F910F9108954FE85CE062E87CE00E942E
:101A1000E00CF3CF42E85CE06FE87CE0F8CF4FE108
:101A20005CE062E17CE0F3CF42E15CE06FE17CE00E
:101A3000EECF4DE35CE06EE27CE0E9CF4EE25CE0AD
:101A40006DE37CE0E4CF4BE55CE06CE47CE0DFCF71
:101A50004CE45CE06BE57CE0DACF4FE35BE068E20E
:101A60007BE0D5CF48E25BE06FE37BE0D0CF81E065
:101A70000E94920CC2CFC1E0C1CF279A45B14F77E7
:101A800055B15068EFB7F8949B01220F331F260F12
:101A9000371F280F391F2817390741F4EFBF8FE58B
:101AA00094E00197F1F700C000000895DC016D910A
:101AB000CD0178E055B9000000C067FF45B9660F59
:101AC000000000C000C000C045B900C07A9591F781
:101AD000E2CF82E290E00E94F726813289F483E22D
:101AE00090E00E94F726863059F484E290E00E944C
:101AF000F72691E0833009F090E0892F81700895F6
:101B000080E0FCCFCF93C82F6FEF811161E282E2BA
:101B100090E00E940B276FEFC11166E083E290E036
:101B20000E940B276FEFC11163E084E290E0CF9138
:101B30000C940B2780E00E94820D0C94311D0895B7
:101B400085E290E00E94F726682F70E090E080E048
:101B5000089585E290E00C940B270E949F0D0E944F
:101B6000690D81110CC060E070E0CB010E94A90DED
:101B70000E94450F0E942F1081E00C94820D089561
:101B8000CF93FB01C281CC2309F19C0122513F4537
:101B90002031310520F582510E943F10C0E08C2F8A
:101BA000CF91089581E00E94071B43E062E081E04D
:101BB0000E940703F3CF81E00E94281B43E062E00C
:101BC00081E00E940703EBCF82E0F6CF8031FFE592
:101BD0009F0789F381319F45B9F3C1E0E0CF8031A0
:101BE000EFE59E07F9F281319F45C9F682E0DBCF30
:101BF0002FEFFC0120830895CF93DF93EC018881C0
:101C00008138A9F028F4803871F0DF91CF910895E0
:101C1000823881F08338C9F70E94570B89830E946C
:101C20005A0B8A83F2CF0E945D0B8983EECF0E940C
:101C30000C0BFBCF0E94420BF8CFCF93DF93EC014C
:101C400088818138E1F028F4803869F0DF91CF9104
:101C50000895823811F18338C9F70E945D0B482F2F
:101C60006A81898108C0D9810E945A0BC82F0E94BD
:101C7000570B4D2F6C2FDF91CF910C945E0C898107
:101C80000E94A40C8981811104C0DF91CF910C9432
:101C90009B0BDF91CF910C94D80C8981DF91CF9170
:101CA0000C94540B1F93CF93DF93EC01162FDC01A0
:101CB000ED91CD01E150E33108F0A4C0F0E0EB5A22
:101CC000F84D0C94EA26198289E08A83612FCE01AF
:101CD000DF91CF911F910C94EF1F89818230B1F079
:101CE000833059F08130A9F40E94C41E0E94F0266E
:101CF0006A837B838C839D83E9CF80E00E94A40666
:101D00008A8381E00E94A4068B83E0CF0E94A00D0D
:101D1000EDCF612FCE010E94F80DD8CF898182309E
:101D2000C1F76A817B818C819D810E94F0260E948F
:101D3000A90DCCCF4B816A8189810E94170F98270A
:101D4000892798279D838C83C1CF2C813D813227A1
:101D5000232732274B816A8189810E94300FB6CFB9
:101D60000E94450FB3CF0E941D0EB0CF0E94FC0D04
:101D7000ADCF0E94F30AAACF0E94D80F8983A6CFC5
:101D80000E94DA0F9827892798279A8389839ECF04
:101D90006B8170E089819A81AE014C5F5F4F98271B
:101DA000892798270E94DD0F91CF6B8170E0898190
:101DB0009A81AE014C5F5F4F9827892798270E9430
:101DC000041084CF0E942F1081CF0E94050FD6CF20
:101DD0006B8170E089819A81AE014C5F5F4F9827DB
:101DE000892798270E947D0F71CF6B8170E08981D0
:101DF0009A81AE014C5F5F4F9827892798270E94F0
:101E0000A20F64CF8FEF888361CF84E0089550E004
:101E1000440F551F96E0699F400D511D11249CE011
:101E2000899F400D511D1124CA01869608950F9374
:101E30001F93CF93DF930E94070F8C010E94F72618
:101E4000C82FD0E0DC2FCC27C80101960E94F726CE
:101E50009E01282BC901DF91CF911F910F91089509
:101E60000F931F93CF93DF93122F032F0E94070F1F
:101E7000EC01602F0E940B27612FCE010196DF91AC
:101E8000CF911F910F910C940B27EF92FF920F931C
:101E90001F93CF93DF9309ED10E0C0E07801D0E00D
:101EA000F701259134914D2F60E08C2F0E94300F67
:101EB00082E0E80EF11CDF5FD33091F7780186E015
:101EC000E80EF11CD0E0F701259134914D2F61E02F
:101ED0008C2F0E94300F82E0E80EF11CDF5FD330C0
:101EE00091F7045F1F4FCF5FC430C1F6DF91CF91F0
:101EF0001F910F91FF90EF900895EF92FF920F9333
:101F00001F93CF93DF93EC018A017C01E60EF71E4D
:101F1000CE018696CE15DF0539F4DF91CF911F9162
:101F20000F91FF90EF900895C033D10540F40E94C7
:101F3000F726F80180830F5F1F4F2196E9CFF80144
:101F40001082F9CFCF92DF92EF92FF920F931F93FF
:101F5000CF93DF937C016A018C01060F171FEC0100
:101F6000CE018696C017D10749F4DF91CF911F911A
:101F70000F91FF90EF90DF90CF900895C033D1057F
:101F800040F4FE01EE19FF09EC0DFD1D60810E9479
:101F90000B272196E5CF462F843038F4723028F491
:101FA000633018F4672F0C94170F90E080E00895C9
:101FB00080E108958AEA93E00895EF92FF920F93EB
:101FC0001F93CF93DF93EC018A017C01E60EF71E8D
:101FD000CE018A5A9F4FCE15DF0539F4DF91CF919C
:101FE0001F910F91FF90EF900895CA3A23E0D20716
:101FF00040F40E94F726F80180830F5F1F4F21965F
:10200000E7CFF8011082F9CFCF92DF92EF92FF92E3
:102010000F931F93CF93DF937C016A018C01060F0E
:10202000171FEC01CE018A5A9F4FC017D10749F400
:10203000DF91CF911F910F91FF90EF90DF90CF90A4
:102040000895CA3A23E0D20740F4FE01EE19FF09D1
:10205000EC0DFD1D60810E940B272196E3CFCF93ED
:10206000DF93C6E5D0E060E0CE010E940B27219609
:10207000C11584E0D807B9F7DF91CF910895DF92B9
:10208000EF92FF920F931F93CF93DF9300D000D076
:10209000CDB7DEB7F82E8FE08F1540F08FEF93E0CD
:1020A0000E94F72606E510E08823C1F00F900F90FC
:1020B0000F900F90DF91CF911F910F91FF90EF90B4
:1020C000DF900895011584E0180781F3C8010E948C
:1020D000F726811101C0FA940F5F1F4FF110F2CF64
:1020E00019821A821B821C82DD24D39478018FEF1F
:1020F000E81AF80AC8010E94F72689831A82882301
:10210000A9F29FEF980F933078F48A83D9820E5FFB
:102110001F4FC7010E94F7268B83882339F2CE0117
:1021200001960E944B04E2CF8701F9CF0F931F93D2
:10213000CF93DF93C42FD22FFC0182818823C9F073
:102140004093A9010E94B81E9093A8018093A70113
:1021500080E28C0F883008F050C0C77081E001C069
:10216000880FCA95EAF7DF91CF911F910F910C94D8
:1021700019151091A901141335C08091A7019091F0
:10218000A8010E94D01E883C910560F5C0E2CD0FE9
:102190001D17B9F080E2810F883040F4177081E09C
:1021A00001C0880F1A95EAF70E942015C83048F43C
:1021B00081E09D2F977001C0880F9A95EAF70E94E1
:1021C0001915802F0E941115C830B8F4D77081E01E
:1021D00001C0880FDA95EAF7DF91CF911F910F9137
:1021E0000C94201580E28C0F883038F4C77081E0A1
:1021F00001C0880FCA95EAF7EFCFDF91CF911F9109
:102200000F9108950F939C01CB01233F4CE53407B8
:1022100059F1A8F4283DFCE53F0701F1293D4CE5C3
:102220003407D1F1273D3C4591F406E221EE41EE21
:1022300067ED7CE50E94961080E00F910895253FA0
:10224000FCE53F07E9F0B0F0263F3C45F9F0FC0122
:102250008281882339F11092A901EFCF07E225EEA0
:1022600045EE68ED7CE5E6CF06E221EE40EE63EF59
:102270007CE5E0CF07E225EE44EE64EF7CE5DACFC3
:1022800006E221EE42EE65EF7CE5D4CF07E225EED3
:1022900046EE66EF7CE5CECF08E221E045EE69ED43
:1022A0007CE5C8CF81E0C9CFCF93DF93EC01FB0180
:1022B0008281882309F419C1C230FCE5DF07C0F12F
:1022C000C6319CE5D90730F09E012A5F3C45293094
:1022D000310570F50E944A1D90933B0280933A02AB
:1022E000C031ECE5DE0709F4CFC008F05BC0C830B0
:1022F0008CE5D80709F4B6C088F5C430ECE5DE07F4
:1023000009F4A8C0C0F4C2308CE5D80709F49CC019
:1023100080913A028260C330DC4509F498C0809114
:102320003A0290913B020E94581D0E94851780E05E
:10233000DF91CF91089580913A028061C630ECE53B
:10234000DE0709F484C080913A028860C730DC451A
:1023500008F47DC080913A02806279C0CC308CE56F
:10236000D80709F489C070F480913A028C60CA30B1
:10237000ECE5DE0709F46BC008F478C080913A02FE
:102380008E7F65C0CE308CE5D80709F479C0809186
:102390003A028B7FCF30DC4508F459C080913A0275
:1023A0008F7E55C0CB3FECE5DE0709F457C030F512
:1023B000C3318CE5D80709F46FC078F4C131ECE57E
:1023C000DE0709F465C0C231DC4509F0A8CF0E94E0
:1023D000851780913A028F773AC0C5318CE5D807CE
:1023E00009F462C008F476C080913B028160CA3F64
:1023F000DC4509F094CF80933B0291CFCF3FFCE5C1
:10240000DF0709F44DC088F480913B028D7FCD3FFA
:102410009CE5D90781F380913B028E7FCE3FDC455E
:1024200050F380913B028360E6CFC130FDE5DF07CA
:1024300009F459C008F444C080E0C230DD4509F019
:102440006ECF0E94DD1D6BCF80913A028160809338
:102450003A0265CF80913A028460F9CF80913B02C5
:102460008260C9CF80913A028064F1CF0E948517C3
:1024700080913A028068EBCF80913A028D7FE7CF5E
:1024800080913A02877FE3CF80913A028F7DDFCF40
:1024900080913A028F7BDBCF80913A02837FD7CF46
:1024A00080913B028C7FA7CF80913A0282FB9927D3
:1024B00090F921E0922790FB82F990FB83F9C7CF36
:1024C00080913B02982F909591708E7F892B90FB85
:1024D00081F991CF0E94851790913A02892F97FB3D
:1024E00087F98058B4CF81E0ACCF81E021CFCF9382
:1024F000DF93EB0186319C4511F50E948D1C9A817A
:10250000992399F08A7A91E009F490E09093AA01D6
:10251000811109C089E20E94681C0E94CC1C80E0E5
:10252000DF91CF91089585E3F6CF8091AA018111C3
:1025300004C089E20E946F1CF0CF85E3FBCF81E0ED
:10254000EFCF9093B0018093AF010895E091AF0178
:10255000F091B001309721F00190F081E02D0994C5
:1025600080E00895E091AF01F091B001309721F043
:102570000280F381E02D09940895E091AF01F0917C
:10258000B001309739F022E0DC012C930480F58112
:10259000E02D099408952091AD013091AE012817E6
:1025A000390771F09093AE018093AD01E091AF01D6
:1025B000F091B001309721F00680F781E02D099469
:1025C00008952091AB013091AC012817390771F0C3
:1025D0009093AC018093AB01E091AF01F091B00119
:1025E000309721F00084F185E02D099408950E9430
:1025F000C41E6093B8017093B9018093BA0190939F
:10260000BB016093B4017093B5018093B6019093C0
:10261000B701089585B7806885BF85B7806885BF95
:102620000895089508950C94111308950C941513AA
:102630000E940A138FE29DE10E94271F0E9412133D
:102640000C94131381E008950C94221308950895B7
:102650000E94AF1E0E94CA060E94AD0D0E94421F3A
:102660000E94A70C0C941613BF92CF92DF92EF92A8
:10267000FF920F931F93CF93DF93CDB7DEB72A97C7
:102680000FB6F894DEBF0FBECDBF0E9426130E9486
:1026900027130E94E70681110E94F71232EBC32E26
:1026A00031E0D32E10E000E0B02E802F0E94A4066F
:1026B000E82EF601F1906F01F81609F458C08091E8
:1026C0000F0281FD0E94AA068F2D8E25F82FF17032
:1026D000FF2E80FD45C081FD45C082FF48C092E0CD
:1026E000D92E24E0F22E0E942413882399F0DE8252
:1026F000BF82EF2081E009F480E088870E94B81E45
:102700008160782F9A8789874E815F8168858A8565
:102710000E94DB13F801EE54FE4F8081F826F08210
:102720000E940C090E94A6129091B101891799F19B
:102730000E94A6128093B1012A960FB6F894DEBFCC
:102740000FBECDBFDF91CF911F910F91FF90EF9002
:10275000DF90CF90BF900C94C20401E010E0A4CFB2
:10276000D12CC1CFDD24D39482E0F82EBCCF013030
:10277000110599F78FEF89838A831B820E94B81E07
:102780008160782F9D838C8349815A816B818D81F3
:102790000E94DB13C5CF2A960FB6F894DEBF0FBE9A
:1027A000CDBFDF91CF911F910F91FF90EF90DF9000
:1027B000CF90BF900895DF92EF92FF920F931F93F7
:1027C000CF93DF93CDB7DEB72B970FB6F894DEBF6C
:1027D0000FBECDBF7A878B87F42E052F162FE72EDD
:1027E000D82E61110E94AD1C1E821D827E2DEC82AE
:1027F000DD824F2D502F612F8D2D9E812B960FB690
:10280000F894DEBF0FBECDBFDF91CF911F910F9126
:10281000FF90EF90DF900C94FB19FC018081918177
:102820000C943A1CCF93C82F882309F48BC08238AC
:10283000C1F40E94A61281FD85C089E30E94681C34
:102840000E94CC1C2FEF81EE94E0215080409040FC
:10285000E1F700C0000089E30E946F1CCF910C9447
:10286000CC1C8338A1F40E94A61280FD6BC083E5C6
:102870000E94681C0E94CC1C2FEF81EE94E0215036
:1028800080409040E1F700C0000083E5E5CF843848
:10289000A1F40E94A61282FD55C087E40E94681C24
:1028A0000E94CC1C2FEF81EE94E02150804090409C
:1028B000E1F700C0000087E4CFCF8CEF8C0F813AA6
:1028C00090F46C2F80910D0190910E010E94F41DE7
:1028D000882329F08C2F0E946F1C0E94CC1C8C2F07
:1028E0000E94681CBBCF80E28C0F883048F4C77010
:1028F00081E001C0880FCA95EAF70E94901CAECF14
:10290000EBE5EC0FE33040F4F0E0E058FE4F80815F
:1029100090E0CF910C94CB12E8E5EC0FE73150F446
:10292000F0E0EE0FFF1FEE5AFE4F80819181CF91B4
:102930000C94E112C03F30F08C2F0E941E08CF9102
:102940000C94F108CF910895882309F452C082387D
:1029500071F40E94A61281FF4CC089E30E94681C9A
:102960000E94CC1C89E30E946F1C0C94CC1C833801
:1029700059F40E94A61280FF3CC083E50E94681CA7
:102980000E94CC1C83E5EFCF843859F40E94A61234
:1029900082FF2FC087E40E94681C0E94CC1C87E441
:1029A000E2CF9CEF980F913AF0F290E2980F9830B6
:1029B00050F4877091E001C0990F8A95EAF7892F4A
:1029C0000E94961CD2CF9BE5980F933020F490E0A4
:1029D00080E00C94CB1298E5980F973120F490E0AA
:1029E00080E00C94E112803F20F00E9478080C9463
:1029F000F10808951F93CF93DF93182FEB010E94E6
:102A00001214209731F4812FDF91CF911F910C94F4
:102A1000A4148FE99FE00197F1F700C0000021970F
:102A2000F0CF70E060E0893311F460E570E00C9461
:102A3000FA14882321F00E94901C0C94CC1C089559
:102A4000882321F00E94961C0C94CC1C0895BF9200
:102A5000CF92DF92EF92FF920F931F93CF93DF936A
:102A60006C01D62FC72FFC011281058102950F70D2
:102A70000E94861CE82E8823A1F0E12E112389F004
:102A80008C2F807F803429F080E28D0FE12C8830FC
:102A900040F082E00E94171D0E94861C91E0E82E03
:102AA000E926BC2EB2949FE0B922FBE0FB1598F119
:102AB000EB2DF0E0E859F84D0C94EA260C2F0F703E
:102AC000C07F11F00295007F1123A9F0002359F077
:102AD00080E28D0F883010F0D11109C0802F0E9444
:102AE000901C0E94CC1C8D2F0E94121414C0802FA9
:102AF0000E94A01CF6CF8D2F0E94A414002359F031
:102B000080E28D0F883010F0D1112CC0802F0E94F0
:102B1000961C0E94CC1C2B2D2850330B24303105E1
:102B200020F40E94A6120E94C204EE2009F48EC175
:102B30000E94821C80FD8AC1F60112820E947C1CC8
:102B40000E94071BC6010E9447170E947C1CDF9150
:102B5000CF911F910F91FF90EF90DF90CF90BF909A
:102B60000C94281B802F0E94A61CD3CF2C2F2F70D3
:102B7000F22EC07FC03219F0F29480EFF822DD23EC
:102B800069F0D13049F1112391F1002351F1F6019F
:102B9000858180FFA8CF8F70858323C0112381F0AA
:102BA000011106C00E94B31C8F290E941915B3CFD2
:102BB0000130C1F70E94B31C8F290E94B91CABCF12
:102BC000011106C00E94C21C8F2D0E942015A3CFA8
:102BD000013009F4A0CFF6CF112329F0063008F018
:102BE0009ACF8F2DE2CF053008F095CFEDCF00239F
:102BF00059F3D93349F4FFEF27EE33E0F150204089
:102C00003040E1F700C000008D2F0E94A41483CF54
:102C10008C2F86958695837069F0813009F07BCF83
:102C20008D2F9C2F9370111102C090E080E00E94C4
:102C3000E11271CF8D2F9C2F9370111102C090E083
:102C400080E00E94CB1267CF8D2F112329F00E94C4
:102C50001E080E94F1085FCF0E947808FACF8C2FDF
:102C6000837009F041C0111156CF4D2F4295469502
:102C70004770440F440F0D2F0F7010E030E020E03C
:102C8000042E04C0000F111F221F331F0A94D2F715
:102C900060E070E0CB01D4FF0FC06FE070E080E037
:102CA00090E004C0660F771F881F991F4A95D2F7DE
:102CB0006095709580959095C695C695C370602B6C
:102CC000712B822B932BC23049F058F4C13019F08C
:102CD0000E94B91A20CF0E94A71A1DCF0E94CB1ABA
:102CE0001ACF0E94A51A17CF8695112311F08C2FA9
:102CF0008170882309F40FCF4D2F42954695477078
:102D0000440F440F0D2F0F7010E030E020E0042E30
:102D100004C0000F111F221F331F0A94D2F760E076
:102D200070E0CB01D4FF0FC06FE070E080E090E076
:102D300004C0660F771F881F991F4A95D2F76095C8
:102D4000709580959095C695C695C370602B712B34
:102D5000822B932BC23049F058F4C13019F00E94F5
:102D60007E1BD9CE0E946C1BD6CE0E94901BD3CE68
:102D70000E94E11AD0CECF70112329F08C2F0E942F
:102D8000071B8D2F12CF8D2F0E9420158C2F0E9494
:102D9000281BC1CED23F89F160F4D03FC9F0D13FAA
:102DA00029F1112309F442C001119DCE8C2F8F719E
:102DB00021C0D33F39F1D43FA1F7112369F1CF717D
:102DC0008C2F0E94071B63E08C2F0E94021DA3CE54
:102DD000112341F0053008F09ECE8C2F8F710E9498
:102DE0004B1B99CE063008F096CEF7CF8C2F8F7103
:102DF000112369F20E94071B8ECE8C2F8F71112335
:102E0000C9F3C5CF112329F08C2F8F710E94F21ABC
:102E100082CE0E94ED1A7FCE81E00E94171D023003
:102E200008F479CE82E00E94171D75CE002359F078
:102E3000D93309F0E9CE8FEF97EEE3E0815090406F
:102E4000E040E1F7DFCE8C2F8F71A1CFDF91CF91E2
:102E50001F910F91FF90EF90DF90CF90BF9008955A
:102E60000F931F93CF93DF93EC01688179818A815F
:102E70000E94441C8C010E94A21B0E94A41AB8014B
:102E8000CE01DF91CF911F910F910C942715CF9315
:102E9000DF93EC018B819C81892B29F088819981BA
:102EA00089238F3F59F4DF91CF910895CE010E947D
:102EB0003017CE01DF91CF910C94A802CE010E9471
:102EC00035038111F3CF0E94861C882361F38A8128
:102ED000882349F382E0DF91CF910C94171D90E095
:102EE00080E00E94CB1290E080E00E94E1120E94FC
:102EF000AD1C0E94B01C0E94CC1C0E94180A0C94AD
:102F0000F1080E94761C0C946F170E949D1C0C9473
:102F10008117E92FE295EF70E250EE3070F4F0E0A7
:102F2000EC58F84D0C94EA26803F19F020F4883EC6
:102F300020F481E00895843FE1F380E00895883E25
:102F4000C0F3813FD1F7F5CF93FB882780F908952F
:102F50000E943A1C0C948917CF93DF9300D000D0C5
:102F60000F92CDB7DEB70F900F900F900F900F908C
:102F7000DF91CF910895CF93DF9300D000D000D0A0
:102F8000CDB7DEB726960FB6F894DEBF0FBECDBF25
:102F9000DF91CF9108951F93CF93DF93C091BD012F
:102FA00016E08091BE018C1304C0DF91CF911F9178
:102FB0000895D0E01C9FF0011D9FF00D1124E154F5
:102FC000FE4F4081518162817381848195810E948D
:102FD000BB172196C770E5CF4091EF015091F001EA
:102FE0006091F1017091F2018091F3019091F401EF
:102FF0000C94BB171F93CF93DF938091F401807FD4
:10300000A9F48091F101882389F08091BD01C091DC
:10301000BE016091EF017091F001A091F201B091B9
:10302000F301D62FD72316E0C81304C0DF91CF9148
:103030001F91089590E0109711F0DF3F19F4019669
:103040008770F2CF189F9001199F300D1124F9015C
:10305000E154FE4F41814713F2CF40814613EFCF39
:1030600042814111ECCF438154814A1B5B0B483CA8
:10307000510528F78091F4018F7080618093F401ED
:10308000F901EC53FE4F80818F70806180838FEE59
:1030900091E00E944717DF91CF911F910C94CB17BD
:1030A000AF92BF92CF92DF92EF92FF920F931F9356
:1030B000CF93DF93CDB7DEB761970FB6F894DEBF3D
:1030C0000FBECDBF8C0185E0F801DE011D96019099
:1030D0000D928A95E1F7F80140815181E2808FEEEF
:1030E000C82E81E0D82E6091F2017091F301611534
:1030F000710509F461C19091EF012091F001892FD0
:1031000082238F3F09F458C1A380B480F090F1016D
:10311000F501E61BF70BFF2009F4FCC08091F401D8
:10312000382F307FE83CF10508F0B2C0311179C08A
:10313000FE2C251323C0941321C0E1101FC08F70F3
:1031400080618093F4010E94EC17C6010E9447172A
:103150008091F401F80185838F2D61960FB6F89464
:10316000DEBF0FBECDBFDF91CF911F910F91FF90BA
:10317000EF90DF90CF90BF90AF900895AB2829F0EB
:10318000842F85238F3F09F033C180E0F82FF17041
:10319000DF2E80FF3CC08091BD012091BE0136E052
:1031A000821315C04D875E878D859E850E943A1CCF
:1031B000292F22952F702230F0F0243018F59F70BF
:1031C000F1F0F8019581907FD1F4D12C1EC090E0F0
:1031D000389FF001399FF00D1124E154FE4F6181B9
:1031E000651306C06081641303C062816E110FC055
:1031F00001968770D5CF9F7011F0882331F3805EE0
:10320000883018F3C8010E944717FD2CA5CFEE2087
:1032100009F4A2CF8091F40181608093F401F12C34
:103220009BCF251306C0941304C0F801EE2009F4C7
:103230008DC04D875E878D859E850E94A817882347
:1032400019F1EE2009F18091F401803270F02091A3
:10325000EF013091F00138872F831986BB86AA864B
:103260008C87CE0107960E94471786E0F801AFEEE3
:10327000B1E001900D928A95E1F70E94FA170E9441
:10328000EC17FF24F39468CFC8010E944717F9CFC9
:10329000311113C07A2DB98AA88A6E2D89890E94AE
:1032A000AC178FEE91E00E94471786E0F60111926D
:1032B0008A95E9F70E94EC17B2CF25130FC094133B
:1032C0000DC0E1100BC0F8018583C8010E944717AB
:1032D00086E0F60111928A95E9F73ECF4D875E8729
:1032E0008D859E850E94A817882371F2EE2061F2D9
:1032F0008091F401803208F4B8CF2091EF01309131
:10330000F0013A8329831B82BD82AC828E83CE0179
:103310000196A9CFE83CF10508F041C0FE2CEE2053
:1033200009F4B2CF25132AC0941328C08091F40168
:1033300080FD1BC0982F907FC1F0F8018583903FDE
:1033400031F0982F907F905F8F70892B8583C80113
:103350000E94471786E0F801AFEEB1E001900D92B0
:103360008A95E1F70E94EC17F7CE86E0F801AFEE00
:10337000B1E001900D928A95E1F7EECE4D875E8720
:103380008D859E850E94A81781116FCF8091F401D1
:1033900081608093F401C8010E944717DDCE7A2D29
:1033A000B98AA88A6E2D89890E94AC1786E0F60139
:1033B00011928A95E9F7D6CFEE2009F465CF4D87B3
:1033C0005E878D859E850E94A817F82E882309F4B4
:1033D0005BCF86E0F801AFEEB1E001900D928A95E7
:1033E000E1F78FEE91E00E940D140E94FA17BACF18
:1033F00081E08E25CBCE1F93CF93DF93CDB7DEB781
:103400002C970FB6F894DEBF0FBECDBF4F83588701
:1034100069877A878B879C87CE0107960E94501810
:10342000882369F08A859B85892B39F04F815885DF
:10343000842F85238F3F09F071C016E05FC086E0BE
:10344000FE013796DE01119601900D928A95E1F703
:103450008A859B85892B89F38F81988589238F3F66
:1034600061F32091BE0130E0C90101968770992770
:103470004091BD014817190671F40E9485171092FA
:10348000BE011092BD0186E0EFEEF1E0DF011D927A
:103490008A95E9F7D2CF96E0929FD001939FB00D25
:1034A0001124A154BE4FFE01319601900D929A95C0
:1034B000E1F78093BE010E94CB17BFCF819FC0016F
:1034C000112481549E4F0E9450188823E9F0E09106
:1034D000BD011E9FF0011124E154FE4F4081518136
:1034E00062817381848195810E94BB178091BD01A7
:1034F00090E00196877099278093BD018091BD016E
:103500009091BE018913DACF2C960FB6F894DEBFE6
:103510000FBECDBFDF91CF911F91089569857A8548
:103520008B859C850E94BB1788CF08950C94951AB3
:103530000E94961A6093FE017093FF01809300022F
:10354000909301020C946F1708950C94981A0F939E
:103550001F930091FE011091FF0120910002309114
:103560000102602B712B822B932B1F910F910C94D6
:10357000981A0F931F930091FE011091FF01209163
:1035800000023091010260237123822393231F9153
:103590000F910C94981A0F931F930091FE011091B4
:1035A000FF012091000230910102602771278227DC
:1035B00093271F910F910C94981A0C94951A0C94C0
:1035C000DD1A0E94DF1A6093FA017093FB01809369
:1035D000FC019093FD010C946F1760E070E0CB014B
:1035E0000C94E11A0F931F9341E050E060E070E00B
:1035F0008A019B0104C0000F111F221F331F8A95EF
:10360000D2F7C901B8011F910F910C94E11A0F93E1
:103610001F9341E050E060E070E004C0440F551F8C
:10362000661F771F8A95D2F78091FA019091FB016E
:10363000A091FC01B091FD018A019B01082B192B7F
:103640002A2B3B2BC901B8011F910F910C94E11A51
:103650000F931F9341E050E060E070E004C0440F1E
:10366000551F661F771F8A95D2F7CB01BA01609567
:103670007095809590950091FA011091FB01209131
:10368000FC013091FD0160237123822393231F915C
:103690000F910C94E11A0F931F9341E050E060E00A
:1036A00070E004C0440F551F661F771F8A95D2F73C
:1036B0008091FA019091FB01A091FC01B091FD0174
:1036C0008A019B01082719272A273B27C901B8012E
:1036D0001F910F910C94E11A0F931F930091FA011F
:1036E0001091FB012091FC013091FD01602B712BA9
:1036F000822B932B1F910F910C94E11A0F931F9320
:103700000091FA011091FB012091FC013091FD0123
:1037100060237123822393231F910F910C94E11A4C
:103720000F931F930091FA011091FB012091FC016E
:103730003091FD0160277127822793271F910F91F8
:103740000C94E11A0895E92FEE0F9E0F890F982F20
:10375000977041E001C0440F9A95EAF786958695E7
:10376000869595E0899FF0011124EB50FE4F30E0E3
:1037700020E070E05191DF011197CB01022E02C0D1
:10378000969587950A94E2F7817081958527842321
:1037900085278C932F5F3F4F2530310559F70895CA
:1037A000E92FEE0F9E0F890F982F977086958695BB
:1037B000869525E0829FF0011124EB50FE4F50E0EA
:1037C00040E080E0219130E0092E02C03695279537
:1037D0000A94E2F721703327042E01C0220F0A94C5
:1037E000EAF7822B4F5F5F4F4530510559F7089537
:1037F000BF92CF92DF92EF92FF920F931F93CF93DE
:10380000DF938C01C090FA01D090FB01E090FC01A5
:10381000F090FD018091FE019091FF01A0910002C6
:10382000B0910102C82AD92AEA2AFB2ACFE1D0E0C6
:10383000BC2ED701C6010C2E04C0B695A79597954E
:1038400087950A94D2F780FD0EC0219788F7B12C96
:103850008B2DDF91CF911F910F91FF90EF90DF9013
:10386000CF90BF900895B8018C2F0E94CA04019791
:1038700061F3EECFCF93DF93EC010E94F81BBE0102
:10388000DF91CF910C94CA041F93CF93DF93EB0188
:103890009091BC01992331F0CB01DF91CF911F9121
:1038A0000C943A1C882379F0CB010E94F81B182F46
:1038B000682FCE010E94A31BBE01812FDF91CF9103
:1038C0001F910C94CA04CB010E94D01B182FF4CF77
:1038D000682F80910D0190910E010C942A1E682F83
:1038E00080910D0190910E010C942C1E80910D0180
:1038F00090910E010C942E1E809102028595859563
:103900008595089580910202877008959091020232
:10391000977081E009F480E0089580910E02089587
:1039200090910E02892B80930E02089580959091BC
:103930000E02982390930E02089510920E0208959D
:1039400090910D02892B80930D020895809590919E
:103950000D02982390930D02089510920D02089580
:1039600010920C02089580910302089508950C941A
:10397000B61C90910302981721F0809303020C94D7
:10398000B71C089580910302882329F01092030246
:1039900080E00C94B71C0895E0910D01F0910E01A8
:1039A00080910E028083E0910D01F0910E018081E3
:1039B00090910D02892B8083E0910D01F0910E0111
:1039C000808190910C02892B80839091030299232E
:1039D00081F0E0910D01F0910E018081892B8083AF
:1039E00080910D0190910E010E94E21D81110E94B3
:1039F000C21C80910D0190910E010C94B212089599
:103A00000C94FF1C98E0899F90011124622B609315
:103A100002020E94071B809102028595859585957B
:103A20000C94001D1092020280E00C94001D9091F5
:103A300002028095892380930202282F277071F457
:103A4000282F082E000C330B9217130639F085959A
:103A5000859585950E94281B0C94121D089580E081
:103A600008956FEF7FEF90E080E00C94292790E0BD
:103A700080E00E94052721E08B3E9E4F09F020E068
:103A8000822F089582E090E00C94F72683E090E086
:103A90000C94F726CF9384E090E00E94F726C82F7D
:103AA00081E290E00E94F726982F8C2FCF91089505
:103AB000CF93C92F682F84E090E00E940B276C2FD2
:103AC00081E290E0CF910C940B27AB01BC018FE019
:103AD00090E00C941D27AB01BC0183E190E00C94B5
:103AE0001D2760E070E0CB010C946B1D60E070E07E
:103AF000CB010E94651D0C94711D6BEE7EEF90E072
:103B000080E00E94292760E082E090E00E940B277D
:103B100060E083E090E00E940B271092FE0110927B
:103B2000FF01109200021092010260E084E090E038
:103B30000E940B2760E081E290E00E940B2760E08A
:103B400085E090E00E940B2760E086E090E00E9414
:103B50000B276FEF87E090E00E940B2740E050E0DA
:103B6000BA0188E090E00E941D2760E08DE090E0BF
:103B70000E940B2740E050E0BA0188E190E00E94EB
:103B80001D2760E087E190E00E940B2740E050E0B5
:103B9000BA018CE190E00E941D2760E080E290E095
:103BA0000E940B2740E050E0BA0188E190E00E94BB
:103BB0001D270C94761D0C947D1D682F8EE090E0DF
:103BC0000C940B279C012E5F3F4FAC01485F5F4F69
:103BD00080E02417350709F40895F90191919F01B8
:103BE0009923B9F38F5FF5CF662349F0FC01329634
:103BF00008962191261729F0E817F907D1F780E0F8
:103C0000089581E008959C01FC0132969FEF80E0C9
:103C10004191461751F09F3F19F4411101C0982F6F
:103C20008F5F8630A9F79F3F09F40895290F311D52
:103C300097FD3A95F90162830895FC013296089642
:103C40002191261303C0DF0111971C92E817F90791
:103C5000B9F708950C94031E0C941D1E029626E0DD
:103C6000FC0111922A95E9F70895089508950C949E
:103C7000361E80914002843049F10E94371E80E058
:103C80000E94C2041092100288E190E020E40FB676
:103C9000F894A895809360000FBE2093600083B7CE
:103CA000817F846083BF83B7816083BF7894889568
:103CB00083B78E7F83BF0FB6F894A895809160007C
:103CC000886180936000109260000FBE089508958F
:103CD0000E94351E0E94E7060E94671E80E00E9437
:103CE000A40691E0811107C081E00E94A40691E042
:103CF000811101C090E0892F089508950C947D1ED4
:103D00000E9485170E94A6120E94C2040C947E1E77
:103D10001F921FB61F9211248F939F93AF93BF934F
:103D200080911002811113C0809136029091370268
:103D3000A0913802B09139024196A11DB11D809326
:103D4000360290933702A0933802B0933902BF91A4
:103D5000AF919F918F911F901FBE1F90189582E089
:103D600084BD93E095BD9AEF97BD80936E00089552
:103D70002FB7F8948091360290913702A0913802C3
:103D8000B09139022FBF08952FB7F8946091360291
:103D90007091370280913802909139022FBF0895B7
:103DA0009C014FB7F8948091360290913702A09110
:103DB0003802B09139024FBF821B930B089578945B
:103DC0001F921FB61F9211248F939F93AF93BF939F
:103DD0008091360290913702A0913802B091390259
:103DE0000196A11DB11D8093360290933702A093D6
:103DF0003802B0933902BF91AF919F918F911F907C
:103E00001FBE1F90189581E08093E00080E28093B0
:103E1000D8001092C9008FE19EE40197F1F700C02D
:103E2000000087E090EBDC018093490290934A0206
:103E3000A0934B02B0934C0288E19CE00FB6F8943B
:103E4000A895809360000FBE90936000FFCF909381
:103E500093018093920108950C949A0D0E94E706B5
:103E60008FE39CE90197F1F700C000000E94E7068C
:103E700080E00E94A40680FF04C00E942C1F0C94C6
:103E8000031F08950E94371D811102C00E94DB1D8F
:103E90000E94421D80930F020E944A1D90933B0294
:103EA00080933A020E94461D682F70E090E080E007
:103EB0000E94A51A6091FA017091FB018091FC01AA
:103EC0009091FD010C94DF1A809119020895CF930F
:103ED000DF9300D00F92CDB7DEB7909140029430BF
:103EE00011F589837B836A839093E9008FEF90912A
:103EF000E800815095FD06C095ED9A95F1F7000018
:103F00008111F5CF8091E80085FF0DC050E040E0C1
:103F100063E070E0CE0101960E94E2218091E8000A
:103F20008E778093E8000F900F900F90DF91CF91E4
:103F30000895BC0184E00C94671FBC0183E00C94DD
:103F4000671F9C0184E08093E9009FEF8091E80067
:103F5000915085FD06C085ED8A95F1F7000091111D
:103F6000F5CF8091E80085FF0CC050E040E066E0AE
:103F700070E0C9010E94E2218091E8008E77809371
:103F8000E8000895CF93DF93EC0181E08093E9008E
:103F90008FEF9091E800815095FD06C095ED9A95C0
:103FA000F1F700008111F5CF8091E80085FF14C082
:103FB00050E040E068E070E0CE010E94E221809194
:103FC000E8008E778093E80088E0FE01A1E1B2E08E
:103FD00001900D928A95E1F7DF91CF910895CF93EB
:103FE000FC01603221F580914002843001F5C091DE
:103FF000E900CF702091EC00922F917020FD90E8A5
:10400000C92B82E08093E9008091E80080FF0CC01A
:1040100050E040E060E270E0CF010E94E221809138
:10402000E8008E778093E800CF70C093E900CF91CD
:10403000089580913F02811109C00E94C1230E940E
:104040001E248091E20084608093E2000895109223
:104050003F02089508950895089542E061EC81E0DB
:104060000E943D2342E261EC84E00E943D2342E253
:1040700061EC82E00E943D2342E260EC83E00C941C
:104080003D2380914202833009F461C030F48130D5
:10409000D1F1823009F49DC008958A3009F489C0B5
:1040A0008B3009F46FC0893009F050C08091410213
:1040B000813209F04BC080914502909146020097F1
:1040C00019F0029709F042C08091E800877F809341
:1040D000E8008091E80082FF35C09091F300809164
:1040E000F200029729F48091F1008B7F813021F456
:1040F0008091F100809319028091E8008B77809382
:10410000E8000C94712380914102813AF9F4809186
:10411000E800877F8093E8008091450290914602F5
:10412000892B61F468E081E192E070E00E948022D6
:104130008091E8008B778093E800089560E090E03C
:1041400080E0F3CF809140028111C3CF0895809128
:104150004102813AD9F78091450290914602892B1C
:10416000A9F78091E800877F8093E8008091E800BC
:1041700080FFFCCF809119018093F1008091E800CD
:104180008E77BDCF80914102813201F78091450247
:1041900090914602892BD1F68091E800877F809329
:1041A000E8000E94712380914302809319010C94CE
:1041B000851780914102813249F68091E800877F1E
:1041C0008093E8000E9471238091440280931A0238
:1041D000089580914102813A09F0B8CF8091E800BA
:1041E000877F8093E8008091E80080FFFCCF80917A
:1041F0001A02C2CFCDB7DEB7A0970FB6F894DEBFD4
:104200000FBECDBF84B7877F84BF0FB6F894A89543
:1042100080916000886180936000109260000FBE02
:1042200080E890E00FB6F89480936100909361006D
:104230000FBE0E9418130E94C1230E941E24809169
:10424000E20084608093E20078940E94A7260E9496
:1042500028138FE091E00E94A11213E080914002A8
:104260008530C9F00E943413809140028430D1F02F
:104270000E9426130E942713F1CF0E94391E8091BD
:104280003E02882341F00E94681E882321F00E948C
:10429000CC210E94851780914002853071F30E94E5
:1042A000801EE0CF1093E9008091E80082FFE0CF0C
:1042B0008091E80090E085FF09C050E040E060E2B6
:1042C00070E0CE0101960E94312291E08091E800D9
:1042D0008B778093E800992359F260E2CE01019632
:1042E0000E94520EC5CF0C947521292F33272330FD
:1042F000310521F168F42130310509F443C0223041
:10430000310509F444C090E080E030E020E026C0B0
:104310002132310551F122323105A9F7633071059F
:1043200090F7FB01EE0FFF1FEA57FE4F208131810E
:104330006D577E4FFB01808190E010C0992781303E
:10434000910581F0009729F00297E9F6E5E9F2E09E
:1043500002C0E7EBF2E0849190E09F01FA01318323
:1043600020830895E3EAF2E0F6CF6330710558F652
:10437000660F771FFB01E457FE4F2081318189E0F2
:1043800090E0ECCF82E190E026E133E0E7CF8BE5EF
:1043900090E02BEB32E0E2CF80E189BD82E189BD84
:1043A00009B400FEFDCF8091D8008F7D8093D800A6
:1043B0008091E00082608093E0008091E00081FDC8
:1043C000FCCF0895AF92BF92CF92DF92FF920F93EE
:1043D0001F93CF93DF936C01EB018A010E9490231E
:1043E000F82E811123C00115110539F0F8018081E3
:1043F0009181C81BD90BC80ED91EB12CA12C2097B6
:10440000A9F08091E80085FD22C08091E8008E77B8
:104410008093E80001151105A1F0F80180819181D8
:10442000A80EB91EB182A08285E0F82E8F2DDF91F3
:10443000CF911F910F91FF90DF90CF90BF90AF90E1
:1044400008950E9490238823D1F2F82EEFCFF60131
:1044500081916F018093F1002197FFEFAF1ABF0A9E
:10446000CECFAF92BF92CF92DF92FF920F931F9366
:10447000CF93DF936C01EB018A010E949023F82E09
:10448000811123C00115110539F0F8018081918156
:10449000C81BD90BC80ED91EB12CA12C2097A9F08E
:1044A0008091E80085FD22C08091E8008B778093A1
:1044B000E80001151105A1F0F80180819181A80E95
:1044C000B91EB182A08285E0F82E8F2DDF91CF91A9
:1044D0001F910F91FF90DF90CF90BF90AF90089504
:1044E0000E9490238823D1F2F82EEFCF8091F10023
:1044F000F60181936F012197FFEFAF1ABF0ACECF6C
:10450000FC01809147029091480286179707A0F01E
:104510006115710529F49091E8009E779093E80069
:1045200090E06115710551F4911108C08091E80087
:1045300082FF34C080E00895BC01F2CF8091400238
:104540008823C1F18530C1F18091E80083FD30C03E
:104550008091E80082FDEACF8091E80080FFE1CF02
:104560008091F3002091F200382F6115710519F048
:104570002830310558F091E02830310509F090E0FD
:104580002091E8002E772093E800CBCF8191809393
:10459000F100615071092F5F3F4FE7CF80914002DA
:1045A000882341F0853041F08091E80083FFBECF41
:1045B00081E0089582E0089583E00895FC018091F0
:1045C00047029091480286179707A0F06115710580
:1045D00029F48091E8008E778093E80090E06115DF
:1045E000710551F4911108C08091E80082FF35C037
:1045F00080E00895BC01F2CF809140028823C9F188
:104600008530C9F18091E80083FD31C08091E800D8
:1046100082FDEACF8091E80080FFE1CF8091F30036
:104620002091F200382F6115710519F028303105FD
:1046300058F091E02830310509F090E08091E800D1
:104640008E778093E800CBCF84918093F1003196F0
:10465000615071092F5F3F4FE6CF80914002882360
:1046600041F0853041F08091E80083FFBDCF81E0CB
:10467000089582E0089583E00895982F973028F0F8
:104680008F708093E90081E008959093E900242FD2
:10469000762F50E0981731F07091EC002091ED00EA
:1046A0005091F00021FD02C09F5FE8CF3091EB00F8
:1046B0003E7F3093EB003091ED003D7F3093ED0075
:1046C0003091EB0031603093EB007093EC0020935D
:1046D000ED005093F0002091EE0027FDE5CF80E043
:1046E00008958091410287FF13C08091E80082FF06
:1046F00006C08091E8008B778093E80004C0809129
:1047000040028111F2CF0895809140028823D9F3AD
:104710008091E80080FFF8CF8091E8008E77ECCFA1
:104720002091E4003091E50095E6A9012091EC008C
:10473000822F817020FF06C08091E80080FF06C0B4
:1047400080E008952091E80022FD1AC08091400287
:10475000882389F0853089F08091EB0085FD0FC0BA
:104760002091E4003091E50042175307F9F291508F
:10477000E1F684E0089582E0089583E0089581E001
:1047800008950E942F240E943724E0EEF0E08081FB
:1047900081608083E8EDF0E080818F77808319BCB1
:1047A000A7EDB0E08C918E7F8C9380818F7E80838B
:1047B00010923F0208950F931F93CF93DF930E94AF
:1047C0002F240E943724C8EDD0E088818F7788831A
:1047D00088818068888388818F7D888319BC109246
:1047E000400210923C0210923E0210923D0200EEF6
:1047F00010E0F80180818B7F8083888181608883CD
:1048000042E060E080E00E943D23E1EEF0E0808144
:104810008E7F8083E2EEF0E0808181608083808102
:1048200088608083F80180818E7F808388818061A9
:104830008883DF91CF911F910F910895E8EDF0E00B
:1048400080818F7E8083E7EDF0E0808181608083CE
:1048500084E082BF81E080933F020C94DB23E8ED8B
:10486000F0E080818E7F80831092E20008951092A4
:10487000DA001092E10008951F920F920FB60F9286
:1048800011242F933F934F935F936F937F938F9355
:104890009F93AF93BF93EF93FF938091E10082FFCB
:1048A0000BC08091E20082FF07C08091E1008B7F06
:1048B0008093E1000E94A6268091DA0080FF19C053
:1048C0008091D80080FF15C08091DA008E7F8093A0
:1048D000DA008091D90080FF96C080E189BD82E135
:1048E00089BD09B400FEFDCF81E0809340020E94A3
:1048F00019208091E10080FF19C08091E20080FFC3
:1049000015C08091E2008E7F8093E2008091E200EA
:1049100080618093E2008091D80080628093D8000B
:1049200019BC85E0809340020E942B208091E10019
:1049300084FF2BC08091E20084FF27C080E189BD05
:1049400082E189BD89B5982F917080FFFBCF80915E
:10495000D8008F7D8093D8008091E1008F7E809376
:10496000E1008091E2008F7E8093E2008091E2007E
:1049700081608093E20080913C02882309F449C061
:1049800084E0809340020E942C208091E10083FF0C
:1049900029C08091E20083FF25C08091E100877FDC
:1049A0008093E10082E08093400210923C0280916B
:1049B000E1008E7F8093E1008091E2008E7F809302
:1049C000E2008091E20080618093E20042E060E0DA
:1049D00080E00E943D238091F00088608093F00089
:1049E0000E942A20FF91EF91BF91AF919F918F91EB
:1049F0007F916F915F914F913F912F910F900FBEDB
:104A00000F901F90189519BC109240020E94272009
:104A100070CF8091E30087FD93E090934002B3CF85
:104A20001F920F920FB60F9211242F933F934F9323
:104A30005F936F937F938F939F93AF93BF93CF9326
:104A4000DF93EF93FF93D091E900DF708091EC004A
:104A5000C82FC17080FDC0E81092E9008091F0007D
:104A6000877F8093F00078940E9454251092E9008B
:104A70008091F00088608093F000CD2BCF70C093C0
:104A8000E900FF91EF91DF91CF91BF91AF919F919D
:104A90008F917F916F915F914F913F912F910F90E7
:104AA0000FBE0F901F9018951F93CF93DF93CDB734
:104AB000DEB7AA970FB6F894DEBF0FBECDBF81E474
:104AC00092E02091F100FC012193CF01F2E08934C2
:104AD0009F07B9F70E9441208091E80083FF1EC123
:104AE00080914102909142029A3008F017C1E92F5B
:104AF000F0E0EE57F84D0C94EA26803899F08238B1
:104B000009F00CC1809145028F70873008F006C112
:104B10008093E9008091EB0085FB882780F9109253
:104B2000E90006C080913D0290913E0291118260A1
:104B30009091E800977F9093E8008093F1001092A5
:104B4000F1008091E8008E77E5C0882309F4D3C096
:104B5000823009F0E3C0809143028111D6C0809178
:104B600045028F702FEF280F263008F0D7C08093B2
:104B7000E9002091EB0020FFC8C0933031F4809110
:104B8000EB0080628093EB00C0C09091EB009061DD
:104B90009093EB0021E030E001C0220F8A95EAF704
:104BA0002093EA001092EA008091EB008860EACF3F
:104BB0008111B4C0109143021F778091E300807887
:104BC000812B8093E3008091E800877F8093E80049
:104BD0000E9471238091E80080FFFCCF8091E30068
:104BE00080688093E30082E0111183E080934002AB
:104BF00095C08058823008F091C080914302909116
:104C000044028C3D23E09207A1F583E08A838AE287
:104C100089834FB7F894DE01139620E03EE051E21D
:104C2000E32FF0E050935700E49120FF03C0E2959A
:104C3000EF703F5FEF708E2F90E0EA30C0F0C796C4
:104C40008D939D932F5F243159F74FBF8091E800DA
:104C5000877F8093E8006AE270E0CE0101960E94AF
:104C600080228091E8008B778093E80057C0C0963F
:104C7000E7CF6091450270914602AE014F5F5F4FF2
:104C80000E947321BC01892B09F448C09091E8006F
:104C9000977F9093E80089819A810E94DE22E1CF7C
:104CA0008038E1F58091E800877F8093E80080916B
:104CB0003C028093F10045CF811130C090914302B6
:104CC000923060F58091E800877F8093E8009093B0
:104CD0003C020E94712380913C02882311F084E001
:104CE00005C08091E30087FDFACF81E08093400208
:104CF0000E942D2013C080914302813079F481E01D
:104D0000933009F080E080933E021092E900809198
:104D1000E800877F8093E8000E9471238091E8007B
:104D200083FF0AC08091E800877F8093E80080912C
:104D3000EB0080628093EB00AA960FB6F894DEBF7A
:104D40000FBECDBFDF91CF911F9108950895CF93EE
:104D5000809140028823A1F0C091E900CF7090912A
:104D6000EC00892F817090FD80E8C82B1092E9003B
:104D70008091E80083FD0E945425CF70C093E90024
:104D8000CF910895AA1BBB1B51E107C0AA1FBB1FEF
:104D9000A617B70710F0A61BB70B881F991F5A95C7
:104DA000A9F780959095BC01CD01089597FB072E3A
:104DB00016F4009407D077FD09D00E94C22607FCA4
:104DC00005D03EF4909581959F4F0895709561951B
:104DD0007F4F0895EE0FFF1F0590F491E02D099489
:104DE0006927962769277827872778270895F999CB
:104DF000FECF92BD81BDF89A992780B50895A6E1AE
:104E0000B0E044E050E00C943127A8E1B0E042E08B
:104E100050E00C943127262FF999FECF92BD81BD29
:104E2000F89A019700B4021639F01FBA20BD0FB6E8
:104E3000F894FA9AF99A0FBE08950396272F0E94C4
:104E40000C270E940B27252F0E940C27242F0C943F
:104E50000C270196272F0E940C270C940B27DC01AE
:104E6000CB01FC01F999FECF06C0F2BDE1BDF89A75
:104E7000319600B40D9241505040B8F70895F8941F
:104E8000FFCFFB0C030D0A0D0F0D140D190D1E0D98
:104E9000230D280D2D0D320D370DFD0CFD0CFD0CD5
:104EA000FD0CFD0CFD0CFD0CFD0C630E6D0E8E0E4D
:104EB0009A0EA50EB00EB30EB60EB90E020F020F6B
:104EC000BC0EC00EC80ED50EE20EE50EE80EF50EB5
:104ED0005E155E15B615B615081624168B158B15BE
:104EE0002F16BB16CA16CA16941794179D179D172E
:104EF0009F179D179D179D1794179417A4179D171B
:104F00009D17A4177D25A5258E26A5258E26D82597
:084F1000F9258E2650265C26CF
:104F18002808641E140A321E0006000606040264ED
:104F28001FC21FA11F9D1F991F01E200E900EA008F
:104F3800B500B600B700CD008301CC008A0192010C
:104F480094012102230224022502260227022A02B2
:104F5800B300B4006F007000818283F0F1F6F4F5BD
:104F68000001E200E900EA00B500B600B700CD0094
:104F78008301CC008A0192019401210223022402B8
:104F88002502260227022A02B300B4006F0070002F
:104F980081828340227BC50328034A03CD02E602AF
:024FA8000603FE
:00000001FF
